:100000000C9434000C9451000C9451000C94510049
:100010000C9451000C9451000C9451000C9451001C
:100020000C9451000C9451000C9451000C9451000C
:100030000C9451000C9451000C9451000C945100FC
:100040000C9451000C9451000C9451000C945100EC
:100050000C9451000C9451000C9451000C945100DC
:100060000C9451000C94510011241FBECFEFD4E02A
:10007000DEBFCDBF11E0A0E0B1E0E8E7F7E002C0ED
:1000800005900D92A630B107D9F721E0A6E0B1E0C6
:1000900001C01D92AA30B207E1F70E9457010C94EB
:1000A000BA030C940000E1E8F0E080818560808371
:1000B00008955A9887FD5A9A5B9886FD5B9A5C98DA
:1000C00085FD5C9A5D9884FD5D9A5E9A00005E985D
:1000D00000000895CF93C82F5F9A5E980E94590040
:1000E0008C2F8295807FCF910C9459001F93CF93D2
:1000F000DF93EC0110E0812F90E0FE0101900020E1
:10010000E9F73197EC1BFD0B8E179F0720F0DF916D
:10011000CF911F9108958C0F9D1FFC0180810E943B
:100120006A00F1E2FA95F1F700001F5FE4CFAF92A9
:10013000BF92DF92EF92FF920F931F93CF93DF93C3
:100140007C0181E090E00E948901EC01D12C8AE0E1
:10015000A82EB12C2097F1F4DF91CF911F910F9130
:10016000FF90EF90DF90BF90AF900895B8016F5F60
:100170007F4FCE010E94B402EC01892B69F3C701C5
:10018000B5010E947501FE01E00FF11F805D8083C3
:100190007B01D3940D2D10E0E114F10439F7C8016F
:1001A0000E9489017C01CE01E114F10481F0800FED
:1001B000911FD701980121503109C817D90791F42F
:1001C000CE010E942302C7010E947600C701DF9181
:1001D000CF911F910F91FF90EF90DF90BF90AF9064
:1001E0000C942302FC01E01BF10BE20FF31F408192
:1001F0004D930197E2CFCF93C82F5F985E980E94EE
:1002000059008C2F8295807FCF910C9459008AB130
:100210008C6F8AB987EA91E60197F1F700C0000078
:100220001BB880E30E94590083EC99E00197F1F735
:1002300000C0000080E30E94590091E29A95F1F716
:10024000000080E30E94590081E28A95F1F70000E6
:1002500088E20E94590091E29A95F1F7000088E245
:100260000E94FB0081E28A95F1F7000088E00E947D
:10027000FB0091E29A95F1F7000081E00E94FB00FB
:1002800087EE93E00197F1F700C0000086E00E943E
:10029000FB0091E29A95F1F700008CE00E94FB00D0
:1002A00087EE93E00197F1F700C0000008950E94E7
:1002B00053000E9407011092850010928400C8EE3E
:1002C000D3E082E00E94FB00809184009091850041
:1002D000BE010E947501CB010E94970087EA91E65A
:1002E0000197F1F700C00000ECCFAA1BBB1B51E146
:1002F00007C0AA1FBB1FA617B70710F0A61BB70B96
:10030000881F991F5A95A9F780959095BC01CD013A
:1003100008950F931F93CF93DF938230910510F4CC
:1003200082E090E0E0910801F091090130E020E0E6
:10033000B0E0A0E0309799F42115310509F447C0E9
:10034000281B390B24303105C0F58A819B8161154A
:10035000710571F1FB0193838283FE0111C040811D
:1003600051810281138148175907F8F0481759073E
:1003700099F4109761F012960C93129713961C93B0
:100380003296CF01DF91CF911F910F910895009385
:10039000080110930901F4CF2115310519F0421716
:1003A000530718F49A01BD01EF01DF01F801C2CF34
:1003B0009093090180930801D0CFFE01E20FF31F53
:1003C000819391932250310939832883DACF209188
:1003D000060130910701232B41F420910201309155
:1003E0000301309307012093060120910001309111
:1003F00001012115310541F42DB73EB740910401AB
:1004000050910501241B350B4091060150910701C5
:100410004217530708F0B5CF241B350B28173907AF
:1004200008F4AFCFBC016E5F7F4F2617370708F483
:10043000A8CF640F751F7093070160930601FA013E
:10044000819391939ECFCF93DF930097E9F0FC01C6
:10045000329713821282C0910801D0910901DE0106
:1004600030E020E02097A1F420813181820F931F9A
:1004700020910601309107012817390709F067C05C
:10048000F0930701E0930601DF91CF910895DA011F
:10049000AE17BF0708F040C012964D915C911397BC
:1004A0009D014115510599F7D9011396FC93EE93DF
:1004B00012974D915D91A40FB51FEA17FB0779F4D0
:1004C000808191810296840F951FD90111969C938A
:1004D0008E938281938113969C938E931297B0E0B2
:1004E000A0E08A819B810097B9F5FE0181919191ED
:1004F000E80FF91F80910601909107018E179F0761
:1005000019F6109761F51092090110920801D09325
:100510000701C0930601B8CFB383A2834081518104
:10052000840F951FA817B90771F44E5F5F4F8D9127
:100530009C911197480F591F5183408312968D91BA
:100540009C91938382832115310509F0ADCFF093FF
:100550000901E093080198CFDE01EC01C2CF1396A8
:100560001C921E921297D3CFB0E0A0E0EAEBF2E02B
:100570000C9487038C01009751F4CB010E948901F0
:100580008C01C801CDB7DEB7EEE00C94A303FC01EB
:10059000E60FF71F9C0122503109E217F30708F418
:1005A000A6C0D901CD91DC911197C617D70798F055
:1005B000C530D10530F3CE0104978617970708F3AD
:1005C000C61BD70B2297C193D1936D937C93CF0118
:1005D0000E942302D6CF4B018C1A9D0A5C01AC0EFF
:1005E000BD1EA0910801B0910901712C612CF12C64
:1005F000E12C109731F580910601909107018A1541
:100600009B0509F065C06616770608F061C0809109
:10061000000190910101009741F48DB79EB7409180
:10062000040150910501841B950BE817F90708F0A8
:100630005EC0F0930701E0930601F90171836083C6
:10064000A0CF8D919C911197AA15BB05B9F56C01AE
:1006500042E0C40ED11CC814D90480F1AE01461B7F
:10066000570B480F591F1296DC9012971396AC91B6
:100670005A01B2E0AB0EB11CB5E0AB16B10480F08C
:10068000D282A38351834083D9016D937C93E1147B
:10069000F10479F0D7011396FC93EE93129771CF82
:1006A00022968C0F9D1FF90191838083ED2DFA2FE7
:1006B000EECFF0930901E093080163CF6816790645
:1006C00008F43C017D0112960D90BC91A02D91CFB4
:1006D000CB010E9489017C01009749F0AE01B8016D
:1006E0000E947A03C8010E94230287014ACF10E0CA
:1006F00000E047CFFB01DC0102C001900D924150A8
:100700005040D8F708952F923F924F925F926F9288
:100710007F928F929F92AF92BF92CF92DF92EF9291
:10072000FF920F931F93CF93DF93CDB7DEB7CA1B12
:10073000DB0B0FB6F894DEBF0FBECDBF09942A883D
:10074000398848885F846E847D848C849B84AA84E5
:10075000B984C884DF80EE80FD800C811B81AA8172
:10076000B981CE0FD11D0FB6F894DEBF0FBECDBF3D
:08077000ED010895F894FFCF9C
:0607780000000A01200050
:00000001FF
